S01A0000416E616C6F675F446174615F416C61726D732E7372656320
S11300000C942A000C94CB030C94F5030C941F0459
S11300100C9447000C9447000C9447000C94470040
S11300200C9447000C9447000C9447000C94470030
S11300300C9447000C9447000C9447000C94470020
S11300400C9473030C9447000C9447000C944700E1
S11300500C94470011241FBECFE5D8E0DEBFCDBF0E
S113006010E0A0E6B0E0E6E3FAE002C005900D92ED
S1130070A838B107D9F720E0A8E8B0E001C01D9284
S1130080AB39B207E1F70E94DF020C9419050C9416
S11300900000CF93C82F60E083E10E945304C4FBA7
S11300A0662760F980E20E945304C5FB662760F965
S11300B081E20E945304C6FB662760F982E20E9433
S11300C053046C2F661F6627661F84E20E94530444
S11300D061E082E10E94530489EF90E00197F1F717
S11300E000C0000060E082E10E94530489EF90E0C8
S11300F00197F1F700C000006C2F617080E20E944C
S11301005304C1FB662760F981E20E945304C2FBD9
S1130110662760F982E20E945304C3FB662760F9F4
S113012084E20E94530461E082E10E94530489EF57
S113013090E00197F1F700C0000060E082E10E94C6
S1130140530489EF90E00197F1F700C00000CF91CC
S11301500895CF93C82F61E083E10E945304C4FB48
S1130160662760F980E20E945304C5FB662760F9A4
S113017081E20E945304C6FB662760F982E20E9472
S113018053046C2F661F6627661F84E20E94530483
S113019061E082E10E94530489EF90E00197F1F756
S11301A000C0000060E082E10E94530489EF90E007
S11301B00197F1F700C000006C2F617080E20E948B
S11301C05304C1FB662760F981E20E945304C2FB19
S11301D0662760F982E20E945304C3FB662760F934
S11301E084E20E94530461E082E10E94530489EF97
S11301F090E00197F1F700C0000060E082E10E9406
S1130200530489EF90E00197F1F700C00000CF910B
S1130210089583ED90E30197F1F700C0000082E0B8
S11302200E94490088E20E9449008CE00E94490033
S113023081E00E94490089EF90E00197F1F700C046
S1130240000086E00E94490083EF91E00197F1F7F6
S113025000C000000895CF93DF93EC0188818823C8
S113026031F021960E94A90089918111FBCFDF9181
S1130270CF9108954F925F926F927F92AF92BF9207
S1130280CF92DF92EF92FF921F93CF93DF93CDB77C
S1130290DEB72A970FB6F894DEBF0FBECDBF6B0151
S11302A07C01611571058105910521F480E30E94AB
S11302B0A9003EC0992384F4F094E094D094C094AF
S11302C0C11CD11CE11CF11C8DE20E94A900C114C7
S11302D0D104E104F10461F110E00F2EFAE04F2E95
S11302E0512C612C712CF02DAA24A394B12CAC0EAA
S11302F0BD1EA10EB11CC701B601A30192010E944B
S1130300D804605DF50160831F5FC22ED32EE42EF6
S1130310F52EC114D104E104F10431F7112341F0A5
S1130320FE01E10FF11D80810E94A9001150C1F767
S11303302A960FB6F894DEBF0FBECDBFDF91CF91E2
S11303401F91FF90EF90DF90CF90BF90AF907F9080
S11303506F905F904F90089589EF90E00197F1F7C7
S113036000C0000081E00E94490083ED90E3019702
S1130370F1F700C000000895813049F028F0823080
S113038049F0833051F00BC090E8960F08C090EC10
S1130390960F05C094E9960F02C094ED960F892F2D
S11303A00E944900089581E08093970061E082E40F
S11303B00E9453040895CF93DF93809160008823B3
S11303C0C1F061E080E30E945304C1E6D0E088817B
S11303D060E970E00E943A031092600081E080932B
S11303E0990089810E945D0361E083E30E945304C4
S11303F02FC0809199008823A1F061E081E30E94DD
S11304005304C1E6D0E0898162E970E00E943A03B6
S11304101092990081E0809396008A810E945D0386
S113042017C080919600882399F061E082E30E94CE
S11304305304C1E6D0E08A8162E970E00E943A0385
S11304401092960081E08093600088810E945D0391
S1130450DF91CF910895CF93DF9360E080E00E9415
S1130460BC0184E690E00E942B01C0E9D0E06881E1
S1130470798180E090E00E943A0184E790E00E9454
S11304802B0160E081E00E94BC0187E790E00E94BC
S11304902B016A817B8180E090E00E943A0184E72D
S11304A090E00E942B0160E082E00E94BC0187E79B
S11304B090E00E942B016C817D8180E090E00E949D
S11304C03A0184E790E00E942B01DF91CF910895D7
S11304D08091900090919100873E934038F0109263
S11304E0980060E082E40E94530408958091920091
S11304F0909193008035910540F081E080939800BD
S113050060E082E40E9453040895809194009091E5
S11305109500883E934040F082E08093980060E02C
S113052082E40E94530408951092970008958091E4
S1130530970080939A00809197008823C9F161E025
S113054086E30E9453040E94AC0160E081E00E94B3
S1130550BC0180919800813089F018F08230D9F084
S1130560089584E690E00E942B01609190007091C0
S1130570910080E090E00E943A01089587E790E0BE
S11305800E942B01609192007091930080E090E0B2
S11305900E943A01089587E790E00E942B01609140
S11305A094007091950080E090E00E943A010895D3
S11305B060E086E30E9453040E94AC0108950E9407
S11305C049040E9409010E9419030E949D0387EABD
S11305D091E60197F1F700C000008BED91E00E94D5
S11305E06E0363ED71E080E00E94B60361E082E493
S11305F00E9453040E94640380E00E94A4030E94AA
S11306002A03809161000E9466030E949B030E945A
S113061068029091970080919A00981719F00E94AF
S11306209702F5CF809197008111F1CF0E942B02A0
S1130630EECF87B117B83E9A87B187B986B116B89D
S113064086B1866086B9359A80B78F7180BF80B7CE
S113065080BF0895379A089597B1987F97B997B155
S1130660892B87B984B195B1FB019183808315B837
S113067014B808950F931F93CF93DF9300D0CDB791
S1130680DEB78B01BE016F5F7F4F0E942C0389810F
S11306909A819C01220F331F220F331F820F931F55
S11306A0892F86958695F801808311820F900F908B
S11306B0DF91CF911F910F91089597B1987F97B9CA
S11306C097B1892B87B90895339A089597B1987F84
S11306D097B997B1892B87B9369A08959093890071
S11306E08093880008951F920F920FB60F921124E1
S11306F02F933F934F935F936F937F938F939F9326
S1130700AF93BF93EF93FF93E0918800F09189003A
S11307100995349AFF91EF91BF91AF919F918F9179
S11307207F916F915F914F913F912F910F900FBEE9
S11307300F901F9018957894089585B7807F85BF92
S113074085B7826085BF0895813041F018F082300A
S113075049F008958BB780648BBF08958BB7806888
S11307608BBF08958BB780628BBF0895813049F0A9
S113077018F0823059F0089570938F0060938E00C2
S1130780089570938D0060938C00089570938B008E
S113079060938A0008951F920F920FB60F9211244E
S11307A02F933F934F935F936F937F938F939F9375
S11307B0AF93BF93EF93FF93E0918E00F0918F007E
S11307C009958AB780648ABFFF91EF91BF91AF9179
S11307D09F918F917F916F915F914F913F912F9155
S11307E00F900FBE0F901F9018951F920F920FB687
S11307F00F9211242F933F934F935F936F937F93A3
S11308008F939F93AF93BF93EF93FF93E0918C00EB
S1130810F0918D0009958AB780688ABFFF91EF91A6
S1130820BF91AF919F918F917F916F915F914F9104
S11308303F912F910F900FBE0F901F9018951F920C
S11308400F920FB60F9211242F933F934F935F9300
S11308506F937F938F939F93AF93BF93EF93FF9384
S1130860E0918A00F0918B0009958AB780628ABF73
S1130870FF91EF91BF91AF919F918F917F916F9174
S11308805F914F913F912F910F900FBE0F901F904A
S113089018958CE08ABB8FEF87BB8FE484BB84E020
S11308A081BB80E00895282F2F7082958F7082304D
S11308B039F118F4813039F079C08330F1F18430A2
S11308C009F458C073C03BB381E090E0022E02C02B
S11308D0880F991F0A94E2F7482F409534233BBBB5
S11308E0623021F49BB389278BBB60C08BB370E06B
S11308F002C0660F771F2A95E2F7682B6BBB56C0C0
S113090038B381E090E0022E02C0880F991F0A9448
S1130910E2F7482F4095342338BB623021F498B372
S1130920892788BB43C088B370E002C0660F771F75
S11309302A95E2F7682B68BB39C035B381E090E0B3
S1130940022E02C0880F991F0A94E2F7482F40959F
S1130950342335BB623021F495B3892785BB26C087
S113096085B370E002C0660F771F2A95E2F7682B03
S113097065BB1CC032B381E090E0022E02C0880F38
S1130980991F0A94E2F7482F4095342332BB623012
S113099021F492B3892782BB09C082B370E002C0FC
S11309A0660F771F2A95E2F7682B62BB80E00895F3
S11309B0052E97FB1EF400940E94EF0457FD07D008
S11309C00E94F70407FC03D04EF40C94EF045095F6
S11309D04095309521953F4F4F4F5F4F0895909527
S11309E08095709561957F4F8F4F9F4F0895A1E239
S11309F01A2EAA1BBB1BFD010DC0AA1FBB1FEE1F95
S1130A00FF1FA217B307E407F50720F0A21BB30BDF
S1130A10E40BF50B661F771F881F991F1A9469F75B
S1130A2060957095809590959B01AC01BD01CF01B7
S1090A300895F894FFCFC5
S1130A36010001044C44522056616C7565206973AB
S1130A46203A20002020004C4D33352056616C7529
S10B0A5665206973203A2000B9
S9030000FC
