S01A0000416E616C6F675F446174615F416C61726D732E7372656320
S11300000C942A000C94DC030C9406040C94300425
S11300100C9447000C9447000C9447000C94470040
S11300200C9447000C9447000C9447000C94470030
S11300300C9447000C9447000C9447000C94470020
S11300400C9484030C9447000C9447000C944700D0
S11300500C94470011241FBECFE5D8E0DEBFCDBF0E
S113006010E0A0E6B0E0E8E5FAE002C005900D92E9
S1130070A83CB107D9F720E0A8ECB0E001C01D927C
S1130080AB3DB207E1F70E9407030C942A050C94D8
S11300900000CF93C82F60E083E10E946404C4FB96
S11300A0662760F980E20E946404C5FB662760F954
S11300B081E20E946404C6FB662760F982E20E9422
S11300C064046C2F661F6627661F84E20E94640422
S11300D061E082E10E94640489EF90E00197F1F706
S11300E000C0000060E082E10E94640489EF90E0B7
S11300F00197F1F700C000006C2F617080E20E944C
S11301006404C1FB662760F981E20E946404C2FBB7
S1130110662760F982E20E946404C3FB662760F9E3
S113012084E20E94640461E082E10E94640489EF35
S113013090E00197F1F700C0000060E082E10E94C6
S1130140640489EF90E00197F1F700C00000CF91BB
S11301500895CF93C82F61E083E10E946404C4FB37
S1130160662760F980E20E946404C5FB662760F993
S113017081E20E946404C6FB662760F982E20E9461
S113018064046C2F661F6627661F84E20E94640461
S113019061E082E10E94640489EF90E00197F1F745
S11301A000C0000060E082E10E94640489EF90E0F6
S11301B00197F1F700C000006C2F617080E20E948B
S11301C06404C1FB662760F981E20E946404C2FBF7
S11301D0662760F982E20E946404C3FB662760F923
S11301E084E20E94640461E082E10E94640489EF75
S11301F090E00197F1F700C0000060E082E10E9406
S1130200640489EF90E00197F1F700C00000CF91FA
S1130210089583ED90E30197F1F700C0000082E0B8
S11302200E94490088E20E9449008CE00E94490033
S113023081E00E94490089EF90E00197F1F700C046
S1130240000086E00E94490083EF91E00197F1F7F6
S113025000C000000895CF93DF93EC0188818823C8
S113026031F021960E94A90089918111FBCFDF9181
S1130270CF9108954F925F926F927F92AF92BF9207
S1130280CF92DF92EF92FF921F93CF93DF93CDB77C
S1130290DEB72A970FB6F894DEBF0FBECDBF6B0151
S11302A07C01611571058105910521F480E30E94AB
S11302B0A9003EC0992384F4F094E094D094C094AF
S11302C0C11CD11CE11CF11C8DE20E94A900C114C7
S11302D0D104E104F10461F110E00F2EFAE04F2E95
S11302E0512C612C712CF02DAA24A394B12CAC0EAA
S11302F0BD1EA10EB11CC701B601A30192010E944B
S1130300E904605DF50160831F5FC22ED32EE42EE5
S1130310F52EC114D104E104F10431F7112341F0A5
S1130320FE01E10FF11D80810E94A9001150C1F767
S11303302A960FB6F894DEBF0FBECDBFDF91CF91E2
S11303401F91FF90EF90DF90CF90BF90AF907F9080
S11303506F905F904F90089589EF90E00197F1F7C7
S113036000C0000081E00E94490083ED90E3019702
S1130370F1F700C000000895813049F028F0823080
S113038049F0833051F00BC090E8960F08C090EC10
S1130390960F05C094E9960F02C094ED960F892F2D
S11303A00E944900089581E08093D70061E082E4CF
S11303B00E9464040895CF93DF93809160008823A2
S11303C0F1F061E080E30E946404C1E6D0E088813A
S11303D060ED70E00E946003E0EDF0E080819181C7
S11303E0880F991F880F991F918380831092600052
S11303F081E08093D90089810E946E0348C0809176
S1130400D9008823F1F061E081E30E946404C1E62D
S1130410D0E0898162ED70E00E946003E0EDF0E0DD
S113042082819381880F991F880F991F93838283F8
S11304301092D90081E08093D6008A810E946E03D5
S113044026C08091D6008823F1F061E082E30E9407
S11304506404C1E6D0E08A8164ED70E00E94600328
S1130460E0EDF0E084819581880F991F880F991F32
S1130470958384831092D60081E080936000888104
S11304800E946E0304C061E083E30E946404DF9170
S1130490CF910895CF93DF938091D7008093DA00B2
S11304A060E080E00E94BC0184E690E00E942B01A1
S11304B0C0EDD0E06881798180E090E00E943A014B
S11304C084E790E00E942B0160E081E00E94BC017F
S11304D087E790E00E942B016A817B8180E090E0B5
S11304E00E943A0184E790E00E942B0160E082E0E0
S11304F00E94BC0187E790E00E942B016C817D8102
S113050080E090E00E943A0184E790E00E942B0191
S11305102FEB87E299E0215080409040E1F700C042
S11305200000DF91CF9108958091D0009091D10087
S1130530803D974038F01092D80060E082E40E9439
S1130540640408958091D2009091D3008433934041
S113055040F081E08093D80060E082E40E9464046B
S113056008958091D4009091D5008433934040F055
S113057082E08093D80060E082E40E9464040895DD
S11305801092D70008958091D7008093DA0080916B
S1130590D7008823B9F161E086E30E94640460E037
S11305A081E00E94BC018091D800813089F018F06C
S11305B08230D9F0089588E890E00E942B01609180
S11305C0D0007091D10080E090E00E943A0108953B
S11305D08DE990E00E942B016091D2007091D300CC
S11305E080E090E00E943A01089582EB90E00E943E
S11305F02B016091D4007091D50080E090E00E94BE
S11306003A01089560E086E30E94640408950E941C
S11306105A040E9409010E944D030E94AE0387EA16
S113062091E60197F1F700C000008BED91E00E9484
S11306307F0363ED71E080E00E94C70361E082E420
S11306400E9464040E94750380E00E94B5030E9426
S11306505E03809161000E9477030E94AC030E94B4
S113066094028091D700882351F09091DA00809110
S1130670D70098130E94AC010E94C302F0CF80916E
S1130680D7008111ECCF9091DA008091D7009813B4
S11306900E94AC010E944A02E2CF87B117B83E9A89
S11306A087B187B986B116B886B1866086B9359A9E
S11306B080B78F7180BF80B780BF0895379A08953F
S11306C097B1987F97B997B1892B87B984B195B1C0
S11306D0FB019183808315B814B8089597B1987F6E
S11306E097B997B1892B87B90895339A089597B12B
S11306F0987F97B997B1892B87B9369A08959093C3
S1130700C9008093C80008951F920F920FB60F92EC
S113071011242F933F934F935F936F937F938F9302
S11307209F93AF93BF93EF93FF93E091C800F09131
S1130730C9000995349AFF91EF91BF91AF919F91B0
S11307408F917F916F915F914F913F912F910F9076
S11307500FBE0F901F9018957894089585B7807FE9
S113076085BF85B7826085BF0895813041F018F058
S1130770823049F008958BB780648BBF08958BB79E
S113078080688BBF08958BB780628BBF08958130DA
S113079049F018F0823059F008957093CF006093B7
S11307A0CE0008957093CD006093CC0008957093AB
S11307B0CB006093CA0008951F920F920FB60F9258
S11307C011242F933F934F935F936F937F938F9352
S11307D09F93AF93BF93EF93FF93E091CE00F0917B
S11307E0CF0009958AB780648ABFFF91EF91BF91CA
S11307F0AF919F918F917F916F915F914F913F91B5
S11308002F910F900FBE0F901F9018951F920F926B
S11308100FB60F9211242F933F934F935F936F93CF
S11308207F938F939F93AF93BF93EF93FF93E09145
S1130830CC00F091CD0009958AB780688ABFFF91FA
S1130840EF91BF91AF919F918F917F916F915F9144
S11308504F913F912F910F900FBE0F901F901895BD
S11308601F920F920FB60F9211242F933F934F9321
S11308705F936F937F938F939F93AF93BF93EF9304
S1130880FF93E091CA00F091CB0009958AB780628A
S11308908ABFFF91EF91BF91AF919F918F917F910B
S11308A06F915F914F913F912F910F900FBE0F90D9
S11308B01F9018958CE08ABB8FEF87BB8FE484BBB5
S11308C084E881BB80E00895282F2F7082958F7073
S11308D0823039F118F4813039F079C08330F1F184
S11308E0843009F458C073C03BB381E090E0022E19
S11308F002C0880F991F0A94E2F7482F40953423C9
S11309003BBB623021F49BB389278BBB60C08BB3A4
S113091070E002C0660F771F2A95E2F7682B6BBB65
S113092056C038B381E090E0022E02C0880F991FB0
S11309300A94E2F7482F4095342338BB623021F4FF
S113094098B3892788BB43C088B370E002C0660FA0
S1130950771F2A95E2F7682B68BB39C035B381E06D
S113096090E0022E02C0880F991F0A94E2F7482FE4
S11309704095342335BB623021F495B3892785BB78
S113098026C085B370E002C0660F771F2A95E2F790
S1130990682B65BB1CC032B381E090E0022E02C01C
S11309A0880F991F0A94E2F7482F4095342332BBED
S11309B0623021F492B3892782BB09C082B370E00C
S11309C002C0660F771F2A95E2F7682B62BB80E0AE
S11309D00895052E97FB1EF400940E94000557FD10
S11309E007D00E94080507FC03D04EF40C940005C0
S11309F050954095309521953F4F4F4F5F4F089547
S1130A0090958095709561957F4F8F4F9F4F089576
S1130A10A1E21A2EAA1BBB1BFD010DC0AA1FBB1FFE
S1130A20EE1FFF1FA217B307E407F50720F0A21B70
S1130A30B30BE40BF50B661F771F881F991F1A94DD
S1130A4069F760957095809590959B01AC01BD0107
S10B0A50CF010895F894FFCFD3
S1130A58010001044C44522056616C756520697389
S1130A68203A20002020004C4D33352056616C7507
S1130A7865206973203A200053656E736F722031C4
S1130A882056616C7565206973203A200073656E81
S1130A98736F7220322056616C7565206973203A31
S1130AA8200073656E736F7220332056616C756510
S10B0AB8206973203A200000BC
S9030000FC
