S00E000047616D655F312E737265630C
S11300000C942A000C9447000C9447000C9447006D
S11300100C9447000C9447000C9447000C94470040
S11300200C9447000C9447000C9447000C94470030
S11300300C9447000C9447000C9447000C94470020
S11300400C9447000C9447000C9447000C94470010
S11300500C94470011241FBECFE5D8E0DEBFCDBF0E
S113006010E0A0E6B0E0E4ECFAE002C005900D92E6
S1130070AA3AB107D9F720E0AAEAB0E001C01D927C
S1130080A33BB207E1F70E9434040C9460050C947E
S11300900000CF93C82F60E083E10E945904C4FBA1
S11300A0662760F980E20E945904C5FB662760F95F
S11300B081E20E945904C6FB662760F982E20E942D
S11300C059046C2F661F6627661F84E20E94590438
S11300D061E082E10E94590489EF90E00197F1F711
S11300E000C0000060E082E10E94590489EF90E0C2
S11300F00197F1F700C000006C2F617080E20E944C
S11301005904C1FB662760F981E20E945904C2FBCD
S1130110662760F982E20E945904C3FB662760F9EE
S113012084E20E94590461E082E10E94590489EF4B
S113013090E00197F1F700C0000060E082E10E94C6
S1130140590489EF90E00197F1F700C00000CF91C6
S11301500895CF93C82F61E083E10E945904C4FB42
S1130160662760F980E20E945904C5FB662760F99E
S113017081E20E945904C6FB662760F982E20E946C
S113018059046C2F661F6627661F84E20E94590477
S113019061E082E10E94590489EF90E00197F1F750
S11301A000C0000060E082E10E94590489EF90E001
S11301B00197F1F700C000006C2F617080E20E948B
S11301C05904C1FB662760F981E20E945904C2FB0D
S11301D0662760F982E20E945904C3FB662760F92E
S11301E084E20E94590461E082E10E94590489EF8B
S11301F090E00197F1F700C0000060E082E10E9406
S1130200590489EF90E00197F1F700C00000CF9105
S1130210089583ED90E30197F1F700C0000082E0B8
S11302200E94490088E20E9449008CE00E94490033
S113023081E00E94490089EF90E00197F1F700C046
S1130240000086E00E94490083EF91E00197F1F7F6
S113025000C0000008950E94A9000895CF93DF9381
S1130260EC018881882331F021960E94A9008991AC
S11302708111FBCFDF91CF9108954F925F926F92DE
S11302807F92AF92BF92CF92DF92EF92FF921F9331
S1130290CF93DF93CDB7DEB72A970FB6F894DEBFBE
S11302A00FBECDBF6B017C01611571058105910500
S11302B021F480E30E94A9003EC0992384F4F094C1
S11302C0E094D094C094C11CD11CE11CF11C8DE2BB
S11302D00E94A900C114D104E104F10461F110E009
S11302E00F2EFAE04F2E512C612C712CF02DAA24E4
S11302F0A394B12CAC0EBD1EA10EB11CC701B60156
S1130300A30192010E941F05605DF50160831F5FD8
S1130310C22ED32EE42EF52EC114D104E104F1042F
S113032031F7112341F0FE01E10FF11D80810E949C
S1130330A9001150C1F72A960FB6F894DEBF0FBE7C
S1130340CDBFDF91CF911F91FF90EF90DF90CF90C1
S1130350BF90AF907F906F905F904F90089589EF1A
S113036090E00197F1F700C0000081E00E9449008D
S113037083ED90E30197F1F700C000000895813008
S113038049F028F0823049F0833051F00BC090E8F6
S1130390960F08C090EC960F05C094E9960F02C022
S11303A094ED960F892F0E94490008950F931F938F
S11303B0CF93DF938C01862F880F880F880F805C82
S11303C00E944900E801085F1F4F89910E94A9001B
S11303D0C017D107D1F780E80E944900DF91CF917F
S11303E01F910F910895CF93C82F60E08091AB00C7
S11303F00E94BF0180E20E942B01C093AB0060E029
S11304008C2F0E94BF0182E00E942B01CF9108959E
S1130410CF93C82F63E18091AA000E94BF0180E2BC
S11304200E942B01C093AA0063E18C2F0E94BF019C
S113043083E00E942B01CF9108950F931F93CF93D4
S1130440DF938C01C0E6D0E0698188810E94BF01FE
S113045080E20E942B01F801808188836181698395
S11304600E94BF0184E00E942B01DF91CF911F9174
S11304700F9108959091AD00911165C0823031F1D2
S113048018F4813039F056C08330E1F1843009F436
S113049045C050C08091AF008A3060F48091AE00B6
S11304A0823018F48F5F8093AE008EEA90E00E9451
S11304B01D0208958091AC00823018F48F5F809300
S11304C0AC008091AC000E94F30108958091AF00CC
S11304D08A3060F48091AE00882319F081508093B3
S11304E0AE008EEA90E00E941D0208958091AC0057
S11304F0882319F081508093AC008091AC000E9455
S1130500F30108958091B200823018F48F5F8093D4
S1130510B2008091B2000E94080208958091B20056
S1130520882319F081508093B2008091B2000E9418
S1130530080208958091B2000E9408028091AC00E4
S11305400E94F3010895823009F44DC018F48130FB
S1130550F1F155C0833019F08430E9F050C0809136
S1130560AF008A3060F08091AE00823018F48F5F63
S11305708093AE008EEA90E00E941D02089580915F
S1130580B200823018F48F5F8093B2008091B20081
S11305900E94080208958091AF008A3060F0809133
S11305A0AE00882319F081508093AE008EEA90E06B
S11305B00E941D0208958091B200882319F0815091
S11305C08093B2008091B2000E9408020895809145
S11305D0AC00823018F48F5F8093AC008091AC0043
S11305E00E94F30108958091AC00882319F0815092
S11305F08093AC008091AC000E94F3010895809137
S1130600B2000E9408028091AC000E94F301089598
S11306108091AD00811109C0EEEAF0E081818F5F25
S11306208183CF010E941D0208C0EEEAF0E08181BF
S113063081508183CF010E941D028091AF008823E5
S113064011F0833141F58091AD0081110CC02091EE
S1130650AE009091B200291789F0E0EBF0E09081B0
S11306609F5F90830BC02091AE009091AC0029173E
S113067029F0E0EBF0E091819F5F918391E081119B
S113068090E09093AD008091AC000E94F3018091C2
S1130690B2000E94080208950F931F93CF9302E6BD
S11306A010E0C0E0F80181918F010E94DE04811105
S11306B003C081E08C0F04C0CF5FC43099F780E0A1
S11306C0CF911F910F9108958091AD00811118C0B1
S11306D08091AF00893050F42FE382E49FE02150F1
S11306E080409040E1F700C0000008952FE38DE0C2
S11306F093E0215080409040E1F700C0000008954D
S11307008091AF008A3050F02FEB87E299E02150BE
S113071080409040E1F700C0000008952FE38DE091
S113072093E0215080409040E1F700C0000008951C
S1130730CF93DF9360E083E00E94BF0186E690E000
S11307400E942E01C0EBD0E0688170E080E090E070
S11307500E943D016AE083E00E94BF018DE690E0C3
S11307600E942E01698170E080E090E00E943D01CA
S1130770DF91CF91089569E080E00E94BF0185E098
S11307800E942B0169E081E00E94BF0185E00E9484
S11307902B0169E082E00E94BF0185E00E942B01E9
S11307A00895CF93DF9300D0CDB7DEB7198281E0EF
S11307B08A8384E790E00E942E010E944C038823E0
S11307C0E1F30E94AF0180E00E94F30180E00E9407
S11307D008020E94BB03CE0101960E941D020E94E2
S11307E098030F900F90DF91CF91089561E087E413
S11307F00E94590461E086E40E94590461E085E4A2
S11308000E94590461E083E40E945904089583EC32
S113081099E00197F1F700C0000062E081EA90E0FE
S11308200E94D60183EC99E00197F1F700C0000023
S113083063E089E990E00E94D60183EC99E0019796
S1130840F1F700C0000064E081E990E00E94D60165
S113085083EC99E00197F1F700C0000065E089E8B6
S113086090E00E94D60108950E9451040E94F6036C
S11308700E9409010E94070487EA91E60197F1F7B3
S113088000C000000E94D1030E944C030E943A025F
S11308900E9408030E94BB030E9498030E94640301
S11308A0F3CF8CE08ABB8FEF87BB14BA11BA80E018
S11308B00895282F2F7082958F70823039F118F4A3
S11308C0813039F079C08330F1F1843009F458C0B3
S11308D073C03BB381E090E0022E02C0880F991FE1
S11308E00A94E2F7482F409534233BBB623021F44D
S11308F09BB389278BBB60C08BB370E002C0660FCB
S1130900771F2A95E2F7682B6BBB56C038B381E09A
S113091090E0022E02C0880F991F0A94E2F7482F34
S11309204095342338BB623021F498B3892788BBBF
S113093043C088B370E002C0660F771F2A95E2F7C0
S1130940682B68BB39C035B381E090E0022E02C049
S1130950880F991F0A94E2F7482F4095342335BB3A
S1130960623021F495B3892785BB26C085B370E036
S113097002C0660F771F2A95E2F7682B65BB1CC07F
S113098032B381E090E0022E02C0880F991F0A94CE
S1130990E2F7482F4095342332BB623021F492B3FE
S11309A0892782BB09C082B370E002C0660F771F3B
S11309B02A95E2F7682B62BB80E00895CF93DF931A
S11309C01F92CDB7DEB71982282F2F7082958F70B2
S11309D0823099F018F4813031F02CC08330B9F0B2
S11309E08430F9F027C089B390E0022E02C09595B7
S11309F087950A94E2F78170898386B390E002C0F8
S1130A00959587952A95E2F78170898313C082B3FF
S1130A1090E002C0959587952A95E2F781708983C5
S1130A2009C080B390E002C0959587952A95E2F7B6
S1130A308170898389810F90DF91CF910895052E6C
S1130A4097FB1EF400940E94360557FD07D00E94C0
S1130A503E0507FC03D04EF40C94360550954095A2
S1130A60309521953F4F4F4F5F4F08959095809556
S1130A70709561957F4F8F4F9F4F0895A1E21A2E75
S1130A80AA1BBB1BFD010DC0AA1FBB1FEE1FFF1F2E
S1130A90A217B307E407F50720F0A21BB30BE40B7E
S1130AA0F50B661F771F881F991F1A9469F76095C5
S1130AB07095809590959B01AC01BD01CF0108957F
S1070AC0F894FFCFD4
S1130AC4010045434647506C792D313A00506C7906
S1130AD42D323A0057656C636F6D6520546F205452
S1130AE468652047616D6521000400040004000466
S1130AF40000040E1F0E040000080C0C0C0C0C0A5D
S10D0B04010206060606060A1000A8
S9030000FC
