S00D000053746F72792E73726563F6
S11300000C942A000C943F000C943F000C943F0085
S11300100C943F000C943F000C943F000C943F0060
S11300200C943F000C943F000C943F000C943F0050
S11300300C943F000C943F000C943F000C943F0040
S11300400C943F000C943F000C943F000C943F0030
S11300500C943F0011241FBECFE5D8E0DEBFCDBF16
S113006012E0A0E6B0E0E0E4FAE002C005900D92F0
S1130070AC30B107D9F70E94AC030C941E050C9464
S11300800000CF93C82F60E083E10E945804C4FBB2
S1130090662760F980E20E945804C5FB662760F970
S11300A081E20E945804C6FB662760F982E20E943E
S11300B058046C2F661F6627661F84E20E9458044A
S11300C061E082E10E94580489EF90E00197F1F722
S11300D000C0000060E082E10E94580489EF90E0D3
S11300E00197F1F700C000006C2F617080E20E945C
S11300F05804C1FB662760F981E20E945804C2FBE0
S1130100662760F982E20E945804C3FB662760F9FF
S113011084E20E94580461E082E10E94580489EF5D
S113012090E00197F1F700C0000060E082E10E94D6
S1130130580489EF90E00197F1F700C00000CF91D7
S11301400895CF93C82F61E083E10E945804C4FB53
S1130150662760F980E20E945804C5FB662760F9AF
S113016081E20E945804C6FB662760F982E20E947D
S113017058046C2F661F6627661F84E20E94580489
S113018061E082E10E94580489EF90E00197F1F761
S113019000C0000060E082E10E94580489EF90E012
S11301A00197F1F700C000006C2F617080E20E949B
S11301B05804C1FB662760F981E20E945804C2FB1F
S11301C0662760F982E20E945804C3FB662760F93F
S11301D084E20E94580461E082E10E94580489EF9D
S11301E090E00197F1F700C0000060E082E10E9416
S11301F0580489EF90E00197F1F700C00000CF9117
S1130200089583ED90E30197F1F700C0000082E0C8
S11302100E94410088E20E9441008CE00E9441005B
S113022081E00E94410089EF90E00197F1F700C05E
S1130230000086E00E94410083EF91E00197F1F70E
S113024000C0000008950E94A1000895CF93DF9399
S1130250EC018881882331F021960E94A1008991C4
S11302608111FBCFDF91CF9108954F925F926F92EE
S11302707F92AF92BF92CF92DF92EF92FF921F9341
S1130280CF93DF93CDB7DEB72A970FB6F894DEBFCE
S11302900FBECDBF6B017C01611571058105910510
S11302A021F480E30E94A1003EC0992384F4F094D9
S11302B0E094D094C094C11CD11CE11CF11C8DE2CB
S11302C00E94A100C114D104E104F10461F110E021
S11302D00F2EFAE04F2E512C612C712CF02DAA24F4
S11302E0A394B12CAC0EBD1EA10EB11CC701B60166
S11302F0A30192010E94DD04605DF50160831F5F2C
S1130300C22ED32EE42EF52EC114D104E104F1043F
S113031031F7112341F0FE01E10FF11D80810E94AC
S1130320A1001150C1F72A960FB6F894DEBF0FBE94
S1130330CDBFDF91CF911F91FF90EF90DF90CF90D1
S1130340BF90AF907F906F905F904F90089589EF2A
S113035090E00197F1F700C0000081E00E944100A5
S113036083ED90E30197F1F700C000000895813018
S113037049F028F0823049F0833051F00BC090E806
S1130380960F08C090EC960F05C094E9960F02C032
S113039094ED960F892F0E94410008950F931F93A7
S11303A0CF93DF938C01862F880F880F880F805C92
S11303B00E944100E801085F1F4F89910E94A1003B
S11303C0C017D107D1F780E80E944100DF91CF9197
S11303D01F910F910895CF93C82F60E080E00E9491
S11303E0B7016C2F70E080E090E00E94350180E658
S11303F090E00E942601CF91089564E081E00E947C
S1130400B70184E690E00E94260163E082E00E9446
S1130410B70182E790E00E94260168E083E00E9431
S1130420B70182E00E9423016BE083E00E94B701E0
S113043087E00E942301089560E081E00E94B701F3
S113044087E00E94230181E890E00E94260166E093
S113045082E00E94B70183E990E00E94260108959A
S113046060E081E00E94B70182E00E9423018DE9EF
S113047090E00E94260160E082E00E94B7018FEACA
S113048090E00E94260160E083E00E94B70184ECC2
S113049090E00E9426012FE38CEA97E221508040ED
S11304A09040E1F700C000000E94A70183E00E9491
S11304B0EB0160E082E00E94B70182ED90E00E94CF
S11304C02601089560E081E00E94B70187E00E9460
S11304D0230187EE90E00E94260169E082E00E94F9
S11304E0B7018FE30E942301089560E081E00E9438
S11304F0B70182E00E9423018BEF90E00E94260165
S113050060E082E00E94B7018EE091E00E94260143
S11305102FE38CEA97E2215080409040E1F700C03D
S113052000000E94A70185E00E94EB0160E082E0E8
S11305300E94B70182E291E00E942601089560E0E2
S113054081E00E94B70187E00E94230184E391E0E7
S11305500E94260165E082E00E94B70185E491E0F3
S11305600E94260169E083E00E94B7018FE30E94A4
S11305702301089560E081E00E94B70182E00E94B7
S113058023018EE491E00E94260165E082E00E944E
S1130590B7018FE591E00E94260163E083E00E94A9
S11305A0B7018AE691E00E9426012FE38CEA97E2E4
S11305B0215080409040E1F700C000000E94A70154
S11305C087E00E94EB0169E081E00E94B70183E0CB
S11305D00E94230184E00E94230160E082E00E94E3
S11305E0B70189E791E00E94260160E083E00E9460
S11305F0B70189E891E00E9426012FEF89E698E18E
S1130600215080409040E1F700C0000069E081E0A3
S11306100E94B70185E00E94230186E00E94230125
S1130620089560E081E00E94B70187E00E94230101
S11306308BE991E00E94260160E082E00E94B7010C
S11306408CEA91E00E94260169E083E00E94B701F0
S113065081E20E942301089560E081E00E94B701D5
S113066082E00E9423018BE991E00E94260160E070
S113067082E00E94B7018CEA91E00E94260108956D
S113068060E081E00E94B70181EC91E00E942601C4
S113069067E082E00E94B70186ED91E00E942601A6
S11306A069E083E00E94B7018FE30E94230108956B
S11306B061E087E40E94580461E086E40E945804E3
S11306C061E085E40E94580461E083E40E945804D8
S11306D0089583EC99E00197F1F700C0000062E00F
S11306E083E092E00E94CE0183EC99E00197F1F758
S11306F000C0000063E08BEF91E00E94CE0183EC28
S113070099E00197F1F700C0000064E083EF91E005
S11307100E94CE0183EC99E00197F1F700C000003C
S113072065E08BEE91E00E94CE0183EC99E00197A5
S1130730F1F700C0000066E083EE91E00E94CE0174
S113074083EC99E00197F1F700C0000067E08BEDBE
S113075091E00E94CE0108950E9450040E94580323
S11307600E9401010E94690387EA91E60197F1F76B
S113077000C0000081E00E94EB010E94FD019FEB9C
S113078026EC8DE2915020408040E1F700C000004B
S11307900E94A70182E00E94EB010E941C029FEBD1
S11307A026EC8DE2915020408040E1F700C000002B
S11307B00E94A70183E00E94EB010E9430029FEB9C
S11307C026EC8DE2915020408040E1F700C000000B
S11307D00E94A70184E00E94EB010E9462029FEB49
S11307E026EC8DE2915020408040E1F700C00000EB
S11307F00E94A70185E00E94EB010E9475029FEB15
S113080026EC8DE2915020408040E1F700C00000CA
S11308100E94A70186E00E94EB010E949F029FEBC9
S113082026EC8DE2915020408040E1F700C00000AA
S11308300E94A70187E00E94EB010E94BA029FEB8D
S113084026EC8DE2915020408040E1F700C000008A
S11308500E94A70188E00E94EB010E9411039FEB14
S113086026EC8DE2915020408040E1F700C000006A
S11308700E94A70189E00E94EB010E942C039FEBD8
S113088026EC8DE2915020408040E1F700C000004A
S11308900E94A7018AE00E94EB010E944003FFCF5F
S11308A08CE08ABB8FEF87BB14BA11BA80E008953D
S11308B0282F2F7082958F70823039F118F481308F
S11308C039F079C08330F1F1843009F458C073C031
S11308D03BB381E090E0022E02C0880F991F0A9476
S11308E0E2F7482F409534233BBB623021F49BB39D
S11308F089278BBB60C08BB370E002C0660F771F83
S11309002A95E2F7682B6BBB56C038B381E090E0C0
S1130910022E02C0880F991F0A94E2F7482F4095CF
S1130920342338BB623021F498B3892788BB43C091
S113093088B370E002C0660F771F2A95E2F7682B30
S113094068BB39C035B381E090E0022E02C0880F45
S1130950991F0A94E2F7482F4095342335BB62303F
S113096021F495B3892785BB26C085B370E002C006
S1130970660F771F2A95E2F7682B65BB1CC032B35C
S113098081E090E0022E02C0880F991F0A94E2F7DA
S1130990482F4095342332BB623021F492B3892727
S11309A082BB09C082B370E002C0660F771F2A952C
S11309B0E2F7682B62BB80E00895052E97FB1EF4D6
S11309C000940E94F40457FD07D00E94FC0407FC25
S11309D003D04EF40C94F404509540953095219531
S11309E03F4F4F4F5F4F0895909580957095619557
S11309F07F4F8F4F9F4F0895A1E21A2EAA1BBB1B56
S1130A00FD010DC0AA1FBB1FEE1FFF1FA217B307D6
S1130A10E407F50720F0A21BB30BE40BF50B661FEC
S1130A20771F881F991F1A9469F7609570958095B0
S1130A3090959B01AC01BD01CF010895F894FFCFBF
S1130A402F313000546865204C616D6220616E6402
S1130A50200054686520576F6C662053746F727958
S1130A60003A2020204C616D622C54656C6C206D22
S1130A7065200020612053746F727920003A20545D
S1130A806865726520776173206F6E63652000610D
S1130A902070616C65206D616E20776974682064D4
S1130AA061726B0020202020202020206861697260
S1130AB02C002077686F2077617320766572792027
S1130AC06C6F6E656C79003A205768792077617392
S1130AD0206974204C6F6E656C79003A20416C6C0F
S1130AE0205468696E6773206D75737420006D659A
S1130AF065742074686973206D616E2C536F2E2E9B
S1130B002E0054686579205368756E6E656420689C
S1130B10696D2E003A20204469642068652043688A
S1130B2061736520005468656D20616C6C003A2027
S1130B30486520746F6F6B20616E204178650020DA
S1130B40616E642053706C69740068696D73656CC0
S1130B506620696E2074776F0020202052696768D0
S1130B60742C20446F776E200020202020202C201D
S1130B70546865204D6964646C65003A2020536FA5
S1130B802C20686520776F756C642000616C776138
S1130B9079732068617665206120467269656E64A8
S1130BA000444F20796F75205265636F676E697AD0
S1130BB0652074686500204D616E000A1B0E151FC8
S1130BC00E0E04060F1F1F1E1C18100C1E1F1F0FD5
S1130BD007030100000A1F0E0400000010080402AD
S10F0BE0070600110E040E15150A0A0089
S9030000FC
