:100000000C942A000C9447000C9447000C94470071
:100010000C9447000C9447000C9447000C94470044
:100020000C9447000C9447000C9447000C94470034
:100030000C9447000C9447000C9447000C94470024
:100040000C9447000C9447000C9447000C94470014
:100050000C94470011241FBECFE5D8E0DEBFCDBF12
:1000600010E0A0E6B0E0E6E5F2E102C005900D92F6
:10007000A437B107D9F721E0A4E7B0E001C01D9291
:10008000A23FB207E1F70E940B070C9429090C94D8
:100090000000CF93C82F61E085E30E94300761E044
:1000A00084E30E94300761E083E30E94300761E04F
:1000B00082E30E94300760E08C2F0E943007CF91CE
:1000C00008958F929F92AF92BF92CF92DF92EF925C
:1000D000FF920F931F93CF93DF9385E30E94490014
:1000E0000F2EF0E7EF2EF0E0FF2EF02D0F2EF0E6B2
:1000F000CF2EF0E0DF2EF02D04E710E0460157018F
:10010000D0E0F501C1915F018C2F0E94B5078111EC
:1001100007C0F401D0818C2F0E94B5078823D9F342
:10012000FFEF8F1A9F0AA016B10659F784E30E94C9
:1001300049000F2EF0E68F2EF0E09F2EF02D0F2EAF
:10014000F0E7AF2EF0E0BF2EF02DF501C1915F0179
:100150008C2F0E94B507811107C0F401D4818C2F28
:100160000E94B5078823D9F3FFEF8F1A9F0AA016C4
:10017000B10659F783E30E9449000F2EF0E68F2E57
:10018000F0E09F2EF02D0F2EF0E7AF2EF0E0BF2E07
:10019000F02DF501C1915F018C2F0E94B5078111EF
:1001A00007C0F401D0858C2F0E94B5078823D9F3AE
:1001B000FFEF8F1A9F0AA016B10659F782E30E943B
:1001C0004900F701C1917F018C2F0E94B507811171
:1001D00007C0F601D4858C2F0E94B5078823D9F378
:1001E000FFEFCF1ADF0AE016F10659F78D2FDF91E6
:1001F000CF911F910F91FF90EF90DF90CF90BF9024
:10020000AF909F908F900895CF93C82F60E083E1C7
:100210000E943007C4FB662760F980E20E94300725
:10022000C5FB662760F981E20E943007C6FB66279E
:1002300060F982E20E9430076C2F661F6627661FF6
:1002400084E20E94300761E082E10E94300789EF7A
:1002500090E00197F1F700C0000060E082E10E94A9
:10026000300789EF90E00197F1F700C000006C2F94
:10027000617080E20E943007C1FB662760F981E26D
:100280000E943007C2FB662760F982E20E943007B5
:10029000C3FB662760F984E20E94300761E082E1D7
:1002A0000E94300789EF90E00197F1F700C000004D
:1002B00060E082E10E94300789EF90E00197F1F75A
:1002C00000C00000CF910895CF93C82F61E083E173
:1002D0000E943007C4FB662760F980E20E94300765
:1002E000C5FB662760F981E20E943007C6FB6627DE
:1002F00060F982E20E9430076C2F661F6627661F36
:1003000084E20E94300761E082E10E94300789EFB9
:1003100090E00197F1F700C0000060E082E10E94E8
:10032000300789EF90E00197F1F700C000006C2FD3
:10033000617080E20E943007C1FB662760F981E2AC
:100340000E943007C2FB662760F982E20E943007F4
:10035000C3FB662760F984E20E94300761E082E116
:100360000E94300789EF90E00197F1F700C000008C
:1003700060E082E10E94300789EF90E00197F1F799
:1003800000C00000CF91089583ED90E30197F1F74D
:1003900000C0000082E00E94040188E20E94040183
:1003A0008CE00E94040181E00E94040189EF90E04A
:1003B0000197F1F700C0000086E00E94040183EF7E
:1003C00091E00197F1F700C0000008950E946401D8
:1003D00008954F925F926F927F92AF92BF92CF92A9
:1003E000DF92EF92FF921F93CF93DF93CDB7DEB7EB
:1003F0002A970FB6F894DEBF0FBECDBF6B017C010C
:10040000611571058105910521F480E30E94640165
:100410003EC0992384F4F094E094D094C094C11C1D
:10042000D11CE11CF11C8DE20E946401C114D104B5
:10043000E104F10461F110E00F2EFAE04F2E512C8F
:10044000612C712CF02DAA24A394B12CAC0EBD1EEE
:10045000A10EB11CC701B601A30192010E94F607CB
:10046000605DF50160831F5FC22ED32EE42EF52E52
:10047000C114D104E104F10431F7112341F0FE016C
:10048000E10FF11D80810E9464011150C1F72A968D
:100490000FB6F894DEBF0FBECDBFDF91CF911F9195
:1004A000FF90EF90DF90CF90BF90AF907F906F90D4
:1004B0005F904F900895813049F028F0823049F0E4
:1004C000833051F00BC090E8960F08C090EC960F67
:1004D00005C094E9960F02C094ED960F892F0E94F3
:1004E000040108956F927F928F92DF92EF92FF92B4
:1004F0000F931F93CF93DF936091A60070E0DB0111
:1005000011971A161B060CF441C04FC02E2D3F2D1B
:1005100010E0C9010196E901CC0FDD1FC20FD31F06
:10052000C955DF4FFC01EE0FFF1FE80FF91FE9551A
:10053000FF4FC981E181EC17E0F4FC01EE0FFF1FD2
:100540008E0F9F1FFC01E955FF4FD0809181828162
:10055000E901CC0FDD1F2C0F3D1FE901C955DF4F0D
:10056000688079808A80608271828282D882998351
:100570008A831F5F212F30E02417350754F20F5F65
:10058000802F90E08A179B0734F00FC080E090E046
:1005900000E0E12CF12CAB01481B590B41505109F3
:1005A000141615060CF4B2CFEACFDF91CF911F914C
:1005B0000F91FF90EF90DF908F907F906F90089554
:1005C0002F923F924F925F926F927F928F929F9263
:1005D000AF92BF92CF92DF92EF92FF920F931F9351
:1005E000CF93DF938091A600882309F48DC2512C0C
:1005F0000F2EF6E14F2EF02DC52DD0E0FE01EE0FAF
:10060000FF1FEC0FFD1FE955FF4F808192819B3248
:1006100061F020F49A3209F43CC170C29D3209F4B1
:100620009EC09F3209F4D0C169C290E09C012F5F47
:100630003F4FCC0FDD1FCC0FDD1FCC0FDD1FCB5389
:10064000DF4F489EA001499E500D1124CA018A5EC9
:100650009E4F4C01FC01A389B489429EC001439E78
:10066000900D11249C012A5E3E4F3901F901238827
:1006700034882C9111963C91119712964C911297B7
:1006800013965C91139714966C91149715967C9120
:10069000159716968C91169717969C91D101AC9050
:1006A0001196BC9011971296CC9012971396DC90ED
:1006B00013971496EC9014971596FC901597169630
:1006C0000C91169717961C910E94E608288339838F
:1006D0004A835B836C837D838E839F8360E081E0AC
:1006E0000E945B02D4015396ED91FC915497608176
:1006F0007181828193810E94E9016AE081E00E9418
:100700005B02D3015396ED91FC9154976081718106
:10071000828193810E94E901F301D48BC38BD401C0
:100720005496DC93CE93539760E082E00E945B0284
:10073000688179818A819B810E94E90180E20E941F
:10074000E60161E087E10E943007BFE7E4E8FEE1EF
:10075000B150E040F040E1F700C00000CFC190E0B0
:100760009C012F5F3F4FCC0FDD1FCC0FDD1FCC0F47
:10077000DD1FCB53DF4F489EA001499E500D112431
:10078000CA018A5E9E4F3C01FC01A389B489429E46
:10079000C001439E900D11249C012A5E3E4F4901E9
:1007A000F901238834882C9111963C911197129667
:1007B0004C91129713965C91139714966C91149721
:1007C00015967C91159716968C91169717969C9175
:1007D000D101AC901196BC9011971296CC901297C3
:1007E0001396DC9013971496EC9014971596FC9042
:1007F000159716960C91169717961C910E94EF0864
:10080000288339834A835B836C837D838E839F83B4
:1008100060E081E00E945B02D3015396ED91FC9170
:10082000549760817181828193810E94E9016AE01D
:1008300081E00E945B02D4015396ED91FC915497A4
:1008400060817181828193810E94E901F401D48BDE
:10085000C38BD3015496DC93CE93539760E082E030
:100860000E945B02688179818A819B810E94E901F3
:1008700080E20E94E60161E0842D0E943007BFE71C
:10088000E4E8FEE1B150E040F040E1F700C00000D4
:1008900035C190E09C012F5F3F4FCC0FDD1FCC0F87
:1008A000DD1FCC0FDD1FCB53DF4F489EA001499EBB
:1008B000500D1124CA018A5E9E4F3C01DC01539603
:1008C0002D903C905497429EC001439E900D112460
:1008D000FC01EA5EFE4F4F01A389B489AC901196EA
:1008E000BC9011971296CC9012971396DC901397A8
:1008F0001496EC9014971596FC90159716960C91FB
:10090000169717961C91D1012C9111963C91119735
:1009100012964C91129713965C91139714966C91C2
:10092000149715967C91159716968C911697179695
:100930009C910E941508288339834A835B836C83CA
:100940007D838E839F8360E081E00E945B02D30100
:100950005396ED91FC9154976081718182819381CE
:100960000E94E9016AE081E00E945B02D401539693
:10097000ED91FC91549760817181828193810E94F5
:10098000E901F401D48BC38BD3015496DC93CE934D
:10099000539760E082E00E945B02688179818A81DE
:1009A0009B810E94E90180E20E94E60161E085E10D
:1009B0000E943007BFE7E4E8FEE1B150E040F040BC
:1009C000E1F700C000009AC090E09C012F5F3F4F0C
:1009D000CC0FDD1FCC0FDD1FCC0FDD1FCB53DF4F46
:1009E000489EA001499E500D1124CA018A5E9E4F67
:1009F0003C01DC0153962D903C905497429EC001DF
:100A0000439E900D1124FC01EA5EFE4F4F01A38925
:100A1000B489AC901196BC9011971296CC90129715
:100A20001396DC9013971496EC9014971596FC90FF
:100A3000159716960C91169717961C91D1012C912B
:100A400011963C91119712964C91129713965C91C6
:100A5000139714966C91149715967C91159716968A
:100A60008C91169717969C910E9470082883398361
:100A70004A835B836C837D838E839F8360E081E008
:100A80000E945B02D3015396ED91FC9154976081D3
:100A90007181828193810E94E9016AE081E00E9474
:100AA0005B02D4015396ED91FC9154976081718162
:100AB000828193810E94E901F401D48BC38BD3011D
:100AC0005496DC93CE93539760E082E00E945B02E1
:100AD000688179818A819B810E94E90180E20E947C
:100AE000E60161E084E10E943007BFE7E4E8FEE14F
:100AF000B150E040F040E1F700C000005394809115
:100B0000A600581608F478CDDF91CF911F910F9170
:100B1000FF90EF90DF90CF90BF90AF909F908F901D
:100B20007F906F905F904F903F902F9008956B3221
:100B300049F018F46A3291F008956D3249F06F323D
:100B400099F0089522E0FC0121832BE2228308958D
:100B500022E0FC0121832DE22283089521E0FC01A3
:100B600021832AE22283089521E0FC0121832FE2E0
:100B7000228308952F923F924F925F926F927F92BD
:100B80008F929F92AF92BF92CF92DF92EF92FF929D
:100B90000F931F93CF93DF9300D01F92CDB7DEB793
:100BA0004C01FC0113861486158616861786108A5A
:100BB000118A128A6588662009F44BC031966A94BE
:100BC000712C82E0680E711C680C791C20E030E00A
:100BD00040E050E060E070E080E090E0A19101E052
:100BE0000E94CD08222E332E442E552E6B837A83FD
:100BF000B82F998302E00E94CD08A22EB32EC42EF6
:100C0000D52EE62EF72E082F192F222D332D442D09
:100C1000552D6B817A818B2F99810E94E608B0E077
:100C2000D0971B2F110F110BAA2EBB2EC12ED12E28
:100C3000E12EF12E012F0E94E608E615F70571F668
:100C4000F40123873487458756876787708B818BAC
:100C5000928BC4010B96F401948B838B0F900F90B1
:100C60000F90DF91CF911F910F91FF90EF90DF9048
:100C7000CF90BF90AF909F908F907F906F905F903C
:100C80004F903F902F900895CF938A3209F4BCC0C3
:100C9000982F9B7F9B3219F08D3209F06EC0909196
:100CA0001501913009F069C02091A60030E0A9013A
:100CB000440F551F240F351F682FC90189559F4FB9
:100CC0000E9497058091A600282F30E0F901EE0FD1
:100CD000FF1FE20FF31FE955FF4F8083F901EE0F6D
:100CE000FF1FEE0FFF1FE20FF31FEC58FF4F808333
:100CF000C6E1C29FC001C39F900D11248A5E9E4F22
:100D00000E94BA058091A600282F30E0F901EE0F6D
:100D1000FF1FEE0FFF1FE20FF31FEC58FF4FC29FA4
:100D2000D001C39FB00D1124AA5EBE4F53962D91E2
:100D30003C915497328321838F5F8093A60090E08B
:100D40009C0121503109F901EE0FFF1FEE0FFF1F2B
:100D50002E0F3F1FF901EC58FF4FC89FD001C99FCC
:100D6000B00D1124AA5EBE4F53968D919C9154975D
:100D7000948383830E9472024CC08D3351F580911D
:100D80001501813009F045C08091A60026E1829FBF
:100D9000C00111248A5E9E4F0E94BA050E94E002A3
:100DA00060E083E00E945B028DE30E94E601E09137
:100DB000A600F0E0EE0FFF1FEE0FFF1FEE0FFF1F6C
:100DC000E354FF4F60817181828193810E94E90128
:100DD00020C08336F1F090ED980F9A30D0F4209136
:100DE000A60096E1299FF0011124EA5EFE4F958945
:100DF000DF01A90FB11D11968C939F5F958B208306
:100E000081E08093150105C090911501913009F49E
:100E10004BCFCF9108950E9428070E94C40187EA12
:100E200091E60197F1F700C000000E946100C82F11
:100E30008823D9F38D3311F00E94E6018C2F0E9494
:100E4000440683ED90E30197F1F700C00000EDCF79
:100E50008FEF8ABB87BB8CE384BB11BA80E0089517
:100E6000282F2F7082958F70823039F118F48130DD
:100E700039F079C08330F1F1843009F458C073C07F
:100E80003BB381E090E0022E02C0880F991F0A94C4
:100E9000E2F7482F409534233BBB623021F49BB3EB
:100EA00089278BBB60C08BB370E002C0660F771FD1
:100EB0002A95E2F7682B6BBB56C038B381E090E00F
:100EC000022E02C0880F991F0A94E2F7482F40951E
:100ED000342338BB623021F498B3892788BB43C0E0
:100EE00088B370E002C0660F771F2A95E2F7682B7F
:100EF00068BB39C035B381E090E0022E02C0880F94
:100F0000991F0A94E2F7482F4095342335BB62308D
:100F100021F495B3892785BB26C085B370E002C054
:100F2000660F771F2A95E2F7682B65BB1CC032B3AA
:100F300081E090E0022E02C0880F991F0A94E2F728
:100F4000482F4095342332BB623021F492B3892775
:100F500082BB09C082B370E002C0660F771F2A957A
:100F6000E2F7682B62BB80E00895CF93DF931F9276
:100F7000CDB7DEB71982282F2F7082958F708230FF
:100F800099F018F4813031F02CC08330B9F08430FE
:100F9000F9F027C089B390E0022E02C0959587959D
:100FA0000A94E2F78170898386B390E002C0959538
:100FB00087952A95E2F78170898313C082B390E008
:100FC00002C0959587952A95E2F78170898309C0BB
:100FD00080B390E002C0959587952A95E2F78170DD
:100FE000898389810F90DF91CF910895052E97FB1A
:100FF0001EF400940E940D0857FD07D00E94F808C7
:1010000007FC03D04EF40C940D0850954095309594
:1010100021953F4F4F4F5F4F089590958095709564
:1010200061957F4F8F4F9F4F0895DF93CF931F930D
:101030000F939A9DF02D219FF00D8B9DF00D8A9DB1
:10104000E02DF10D039FF00D029FE00DF11D4E9D6F
:10105000E00DF11D5E9DF00D4F9DF00D7F936F93A0
:10106000BF92AF925F934F93D5010E941A098B01F3
:10107000AC01D7010E941A09EB01E80FF91FD60154
:101080000E9465082F913F91D6010E941A09C60F50
:10109000D71FE81FF91FAF91BF910E9465082F91DC
:1010A0003F910E941A09C60FD71FE81FF91FD601EA
:1010B0000E941A09E60FF71F9801BE01CF01112403
:1010C0000F911F91CF91DF9108950E941A09460F49
:1010D000571FC81FD91F08F431960895689401C09E
:1010E000E8948F929F92CF93DF930E947C08DF91C8
:1010F000CF919F908F90089588249924F401E40162
:10110000B0E49F93AA279A158B049C04ED05FE0575
:10111000CF05D007A10798F4AD2FDC2FCF2FFE2FDE
:10112000E92D982C892E982F872F762F652F542FF5
:10113000432F322F2227B85031F7BF9127C01B2EE3
:10114000BF91BB27220F331F441F551F661F771FF8
:10115000881F991F881C991CEE1FFF1FCC1FDD1FC5
:10116000AA1FBB1F8A149B04EC05FD05CE05DF05F5
:10117000A007B10748F08A189B08EC09FD09CE09C1
:10118000DF09A00BB10B21601A94E1F62EF4940153
:10119000AF01BE01CD01000C08950F93083090F00F
:1011A000982F872F762F652F542F432F322F2227EA
:1011B0000850F4CF220F331F441F551F661F771F9F
:1011C000881F991F0A95B2F70F9108952A0D3B1DAC
:1011D0004C1D5D1D6E1D7F1D801F911F08952A19D6
:1011E0003B094C095D096E097F09800B910B08953D
:1011F000A1E21A2EAA1BBB1BFD010DC0AA1FBB1F1B
:10120000EE1FFF1FA217B307E407F50720F0A21B8C
:10121000B30BE40BF50B661F771F881F991F1A94F9
:1012200069F760957095809590959B01AC01BD0123
:10123000CF010895A29FB001B39FC001A39F700D7D
:10124000811D1124911DB29F700D811D1124911DCE
:061250000895F894FFCFA1
:101256003738392F3435362A3132332D63303D2B2A
:04126600474645436F
:00000001FF
